:100000000C9490000C94B8000C94B8000C94B800B8
:100010000C94B8000C94B8000C94B8000C94B80080
:100020000C94B8000C94B8000C94B8000C94B80070
:100030000C94B8000C94B8000C94B8000C94B80060
:100040000C948C040C94B8000C9409030C94E302F7
:100050000C94B8000C94B8000C94B8000C94B80040
:100060000C94D6040C94B8006B0DBB0E490DC40E55
:10007000860DC40EC40EC40EC40EC40EC40EC40E2F
:10008000C40EA10E420D9C0D450DB80DC40EC40E3C
:10009000700D0000000800020100000304070000CA
:1000A00000000000000000000000250028002B00D8
:1000B00000000000240027002A00040404040404B3
:1000C0000404020202020202030303030303010207
:1000D00004081020408001020408102001020408D6
:1000E00010204E414E494E495459494E46CDCCCC34
:1000F0003D0AD7233C17B7D13877CC2B329595E6FC
:10010000241FB14F0A000020410000C84200401CDB
:100110004620BCBE4CCA1B0E5AAEC59D74009F1231
:1001200011241FBECFEFD8E0DEBFCDBF11E0A0E0AD
:10013000B1E0ECE1F5E302C005900D92A437B10700
:10014000D9F723E0A4E7B1E001C01D92AF38B207B0
:10015000E1F710E0C0E9D0E004C02197FE010E9461
:10016000D113CF38D107C9F70E949A0A0C948C1A80
:100170000C940000CF92DF92EF92FF920F931F93A7
:10018000CF93DF936C017A018B01C0E0D0E0CE15F4
:10019000DF0589F0D8016D918D01D601ED91FC91BB
:1001A0000190F081E02DC6010995892B11F47E01A3
:1001B00002C02196ECCFC701DF91CF911F910F9123
:1001C000FF90EF90DF90CF900895FC01918D828D8C
:1001D000981761F0828DDF01A80FB11D5D968C919B
:1001E000928D9F5F9F73928F90E008958FEF9FEFA6
:1001F0000895FC01918D828D981731F0828DE80F62
:10020000F11D858D90E008958FEF9FEF0895FC011B
:10021000918D228D892F90E0805C9F4F821B9109E8
:100220008F73992708958AE692E00E94070121E0E2
:10023000892B09F420E0822F0895FC01848DDF01D1
:10024000A80FB11DA35ABF4F2C91848D90E0019649
:100250008F739927848FA689B7892C93A089B18938
:100260008C9180648C93938D848D981306C0028842
:10027000F389E02D80818F7D80830895EF92FF9236
:100280000F931F93CF93DF93EC0181E0888F9B8DB9
:100290008C8D981305C0E889F989808185FD24C07B
:1002A000F62E0B8D10E00F5F1F4F0F731127E02EFE
:1002B0008C8DE8120CC00FB607FCFACFE889F989DB
:1002C000808185FFF5CFCE010E941D01F1CF8B8D7E
:1002D000FE01E80FF11DE35AFF4FF0820B8FEA8910
:1002E000FB898081806207C0EE89FF896083E8898D
:1002F000F98980818064808381E090E0DF91CF91F3
:100300001F910F91FF90EF900895CF93DF93EC0131
:10031000888D8823C9F0EA89FB89808185FD05C025
:10032000A889B9898C9186FD0FC00FB607FCF5CF5F
:10033000808185FFF2CFA889B9898C9185FFEDCFA7
:10034000CE010E941D01E7CFDF91CF91089580E09B
:1003500090E0892B29F00E94130181110C94000078
:10036000089585ED8093BC008091BC0084FDFCCF96
:1003700010920903089540913C02262F30E0240F8B
:10038000311D21323105DCF4209109032430C9F4F8
:10039000FC0180E090E0861758F430913C022191F6
:1003A000DC01A65EBD4FA30FB11D2C930196F3CFC8
:1003B00080913C02680F60933C0280E0089581E0E8
:1003C000089582E008950895E0910D0380910C0353
:1003D000E81730F4F0E0E153FE4F808190E008959B
:1003E0008FEF9FEF089590910D0380910C03981764
:1003F00050F4E92FF0E0E153FE4F208130E09F5FA1
:1004000090930D0302C02FEF3FEFC9010895809133
:100410000C0390E020910D03821B91090895CF9267
:10042000DF92EF92FF920F931F93CF93DF937C01A4
:10043000262F972F8A0180918A01882391F0C62F59
:10044000D72F6E01C40ED51ECC15DD0571F0699154
:10045000D701ED91FC910190F081E02DC701099544
:10046000F3CF642F822F0E94BB01C801DF91CF918F
:100470001F910F91FF90EF90DF90CF900895CF9351
:10048000DF931F92CDB7DEB7698320918A012223C3
:10049000D1F020910A03203240F021E030E0FC014D
:1004A0003383228380E090E015C080910B03E82F16
:1004B000F0E0E557FE4F998190838F5F80930B03A7
:1004C00080930A0305C061E0CE0101960E94BB0142
:1004D00081E090E00F90DF91CF9108950E94411745
:1004E000FC0180819181009711F00C94561760E017
:1004F00070E0CB010895FC012481358162177307F8
:1005000048F480819181009729F0FC01E60FF71FE4
:100510008081089580E008950F931F93CF93DF9318
:10052000EC0188819981009729F02A813B81261767
:10053000370788F48B016F5F7F4F0E947716009713
:1005400061F0998388831B830A832C813D81232B4F
:1005500011F4FC01108281E001C080E0DF91CF91B5
:100560001F910F910895EF92FF920F931F93CF93D6
:10057000DF93EC017B018A01BA010E948C02288181
:10058000398181110DC02115310519F0C9010E9471
:10059000DF15198218821D821C821B821A8206C0F6
:1005A0001D830C83B701C9010E944F17CE01DF9153
:1005B000CF911F910F91FF90EF900895FC018081E2
:1005C00091810C94DF151F920F920FB60F92112498
:1005D0002F933F934F935F936F937F938F939F934B
:1005E000AF93BF93EF93FF938AE692E00E941D01C1
:1005F000FF91EF91BF91AF919F918F917F916F91FB
:100600005F914F913F912F910F900FBE0F901F90D0
:1006100018951F920F920FB60F9211242F938F935C
:100620009F93EF93FF93E0917A02F0917B02808198
:10063000E0918002F091810282FD12C09081809150
:1006400083028F5F8F7320918402821751F0E091B3
:100650008302F0E0E659FD4F958F8093830201C03D
:100660008081FF91EF919F918F912F910F900FBEFD
:100670000F901F90189590E0FC01EE56FF4F3491BB
:10068000FC01E253FF4F2491FC01E654FF4FE4913B
:10069000EE2309F43BC0332339F1333091F038F4C1
:1006A0003130A9F0323001F584B58F7D12C037307A
:1006B00091F03830A1F03430B9F4809180008F7D12
:1006C00003C0809180008F77809380000DC084B537
:1006D0008F7784BD09C08091B0008F7703C080916F
:1006E000B0008F7D8093B000F0E0EE0FFF1FEA5561
:1006F000FF4FA591B4918FB7F894EC91611103C0AD
:1007000020952E2301C02E2B2C938FBF0895EF929E
:10071000FF921F93CF93DF931F92CDB7DEB77C017B
:10072000162F60E0FC01808949830E943B031EBDB7
:10073000000049810DB407FEFDCF8EB54EBD00000F
:100740000DB407FEFDCF8EB561E0F70180890F90F3
:10075000DF91CF911F91FF90EF900C943B034F924C
:100760005F926F927F928F929F92AF92BF92CF9241
:10077000DF92EF92FF920F931F93CF93DF93EC01E1
:100780008B0169017A0120E030E0A901C701B601BF
:100790000E94141918160CF071C0488059806A80A4
:1007A0007B808C849D84AE84BF84A5019401C301A9
:1007B000B2010E941419882361F0A5019401C701B8
:1007C000B6010E947A19A30192010E9444146B01A0
:1007D0007C014C805D806E807F80A3019201C70107
:1007E000B6010E94D7136B017C01A3019201C501E0
:1007F000B4010E94D71320E030E040E85BE30E94A0
:100800007A199B01AC01C701B6010E9444140E94F1
:10081000B61480E090E00E94191920E030E040E03A
:100820005FE30E94D8130E94B6140130110551F401
:100830006F3F710509F018F4462F60E10CC040E0ED
:1008400061E109C06F3F710509F018F4462F60E0BF
:1008500002C040E061E0CE01DF91CF911F910F9186
:10086000FF90EF90DF90CF90BF90AF909F908F90D0
:100870007F906F905F904F900C94870360E070E0E2
:100880000130110519F7D8CF8E3008F08E508770DF
:10089000806480937C0080917A00806480937A00E9
:1008A00080917A0086FDFCCF8091780020917900BC
:1008B00090E0922B08953FB7F89480916602909152
:1008C0006702A0916802B091690226B5A89B05C095
:1008D0002F3F19F00196A11DB11D3FBFBA2FA92FBF
:1008E000982F8827820F911DA11DB11DBC01CD013C
:1008F00042E0660F771F881F991F4A95D1F7089528
:100900002FB7F89460916202709163028091640243
:10091000909165022FBF08951F920F920FB60F920C
:1009200011242F933F938F939F93AF93BF93809105
:10093000620290916302A0916402B09165023091CD
:10094000610223E0230F2D3720F40196A11DB11D74
:1009500005C026E8230F0296A11DB11D2093610258
:100960008093620290936302A0936402B093650245
:100970008091660290916702A0916802B09169022D
:100980000196A11DB11D8093660290936702A0930A
:100990006802B0936902BF91AF919F918F913F918F
:1009A0002F910F900FBE0F901F9018951F920F92CE
:1009B0000FB60F9211242F933F934F935F936F9332
:1009C0007F938F939F93AF93BF93EF93FF93809108
:1009D000B900887F803609F49CC068F5883209F434
:1009E0005BC090F4803109F454C038F4882309F4D2
:1009F000F6C0883009F44DC0F6C0883109F44CC007
:100A0000803209F45DC0EFC0803409F468C048F456
:100A1000803309F455C0883309F0E5C08093CE01D6
:100A2000D8C0803509F44FC0883509F45DC08834DA
:100A300009F0D9C0D6C0883909F4C7C0A8F48837EE
:100A400009F467C038F4883609F463C0803709F4C4
:100A500060C0C9C0883809F4B8C0803909F45FC0E3
:100A6000803809F0C0C05BC0803B09F486C038F410
:100A7000803A09F466C0883A09F47FC0B4C0803C6B
:100A800009F4A7C0883C09F4A4C0883B09F48AC0D3
:100A9000AAC08091CB0110C09091CD018091CC0172
:100AA000981770F5E091CD0181E08E0F8093CD0114
:100AB000F0E0E555FE4F80818093BB0085EC86C059
:100AC0008093CE018EC0E091CD0181E08E0F8093A6
:100AD000CD018091BB00F0E0E555FE4F8083909101
:100AE000CD018091CC016EC0E091CD0181E08E0FEF
:100AF0008093CD018091BB00F0E0E555FE4F8083EF
:100B00008091080381116DC081E08093070384EA1E
:100B100061C083E08093090310926002CFCF80917F
:100B20006002803208F051C0E091600281E08E0FD7
:100B3000809360028091BB00F0E0E05CFD4F808319
:100B4000BDCF85EC8093BC001092090380916002B8
:100B5000803230F4E0916002F0E0E05CFD4F108202
:100B60006091600270E0E0913E02F0913F0280E40B
:100B700092E009951092600236C084E080930903E8
:100B800010923D0210923C02E0913A02F0913B0239
:100B9000099580913C02811105C081E080933C025F
:100BA00010921A02E0913D0281E08E0F80933D0287
:100BB000F0E0E65EFD4F80818093BB0090913D02A6
:100BC00080913C02981708F479CF85E88093BC00A7
:100BD0000AC085EC8093BC001092090304C01092F7
:100BE000CE010E94B101FF91EF91BF91AF919F9112
:100BF0008F917F916F915F914F913F912F910F90C6
:100C00000FBE0F901F9018950F931F93CF938C01D9
:100C1000C62F862F0E94E10861E08C2F0E943B03C3
:100C2000F801C08BCF911F910F9108952F923F92A1
:100C30004F925F926F927F928F929F92AF92BF92EC
:100C4000CF92DF92EF92FF920F931F93CF93DF9398
:100C500000D000D0CDB7DEB71C012A013B0148010E
:100C6000590120E030E0A901C301B2010E9414192A
:100C700087FD78C020E030E0A901C501B4010E94E1
:100C8000141987FD6FC020E030E0A901C701B6014B
:100C90000E94141987FD66C0F10140825182628270
:100CA000738284829582A682B782C086D186E286CC
:100CB000F38664A575A586A597A50E94191920E05D
:100CC00030E04AE754E40E94441469837A838B83BA
:100CD0009C83F10144865586668677869B01AC012C
:100CE000C501B4010E947A194B015C01F101608BCE
:100CF000718B828B938B29813A814B815C81C701F7
:100D0000B6010E9444146B017C01F101648B758B68
:100D1000868B978B808D918D019721F5A301920190
:100D200060E070E0CB010E94D713F1016487758702
:100D300086879787A501940160E070E0CB010E944F
:100D4000D713F101608B718B828B938BA701960176
:100D500060E070E0CB010E94D713F101648B758BCA
:100D6000868B978B0F900F900F900F90DF91CF9104
:100D70001F910F91FF90EF90DF90CF90BF90AF90B9
:100D80009F908F907F906F905F904F903F902F90AB
:100D900008958F929F92AF92BF92CF92DF92EF927F
:100DA000FF922DEC3CEC4CEF50E46091EF01709120
:100DB000F0018091F1019091F2010E947A1924EAE8
:100DC00030E74DEF5FE30E94D8136B017C0120E018
:100DD00030E048EC52E40E94E514181634F4C12CBB
:100DE000D12C98ECE92E92E4F92EC0927C01D0929D
:100DF0007D01E0927E01F0927F0126E636E646ED27
:100E000050E46091840170918501809186019091F8
:100E100087010E94D7132CE837E640ED5AE30E9481
:100E200044144B015C0120E030E0A9010E94141938
:100E300087FF03C0812C912C5401C501B4010E948D
:100E4000F014609378017093790180937A01909304
:100E50007B0128E431EE46E251E46091800170911B
:100E6000810180918201909183010E947A192FE77C
:100E70003AE64CEB5CE30E94D8134B015C0120E0A6
:100E800030E040E85FE30E94141987FF06C0812C20
:100E9000912C80E8A82E8FE3B82E80927401909256
:100EA0007501A0927601B0927701A701960161E0E9
:100EB00070E088E793E00E94AF03209178013091C1
:100EC000790140917A0150917B0162E070E088E7FE
:100ED00093E00E94AF03209174013091750140911D
:100EE00076015091770162E070E087E693E0FF9031
:100EF000EF90DF90CF90BF90AF909F908F900C9429
:100F0000AF03E0918801F0918901EE0FFF1FEE0F12
:100F1000FF1FE85DFE4F80819181A281B3818093A4
:100F20001A0390931B03A0931C03B0931D0310920C
:100F3000EF011092F0011092F1011092F20180E0A5
:100F400090E0A0EAB1E48093840190938501A0939E
:100F50008601B093870180E090E0A0ECBFE380932E
:100F6000800190938101A0938201B0938301089541
:100F700024EA34E844E92093BC009091BC0097FF38
:100F8000FCCF9091B900987F983011F0903199F78B
:100F90008093BB003093BC009091BC0097FFFCCFC6
:100FA0009091B900987F903211F0983539F44093C0
:100FB000BC009091BC0094FDFCCFDDCF97E09093F6
:100FC000BB0094E89093BC009091BC0097FFFCCFCD
:100FD0009091B90094EA9093BC009091BC0097FF67
:100FE000FCCF9091B900987F983011F0903161F466
:100FF0008F5F8093BB0084E88093BC008091BC002D
:1010000087FFFCCF8091B90084EC8093BC00809175
:10101000BC0087FFFCCF6091BB00862F90E024ECE2
:101020002093BC002091BC0027FFFCCF6091BB0047
:1010300024E82093BC002091BC0027FFFCCF209126
:10104000BB0024E92093BC002091BC0024FDFCCF10
:101050006F7770E0762F6627680F791F072E000CD8
:10106000880B990B0E941B192AE037ED43EA5CE3D9
:101070000E947A192AE037ED43E25CE30E94D7131D
:1010800023E333E948E853E40E94D7130895CF924D
:10109000DF92EF92FF926C018AE0C816D10428F427
:1010A00060E38AE692E00E943E010D2C000CEE08FF
:1010B000FF08F7FE0CC08DE20E94530966277727D0
:1010C000CB016C197D098E099F094AE003C04AE0F3
:1010D000C701B601FF90EF90DF90CF900C941209FA
:1010E000BF92CF92DF92EF92FF920F931F93CF9315
:1010F000DF937C016B01EA01DB0114960D911C91D9
:1011000015970417150720F48D2FE801042F182FC9
:10111000F70111821082138212821582148240E03C
:1011200050E064E671E0C7010E94B302D601149654
:101130008D919C911597C817D907C0F58017910715
:1011400008F48C01D601ED91FC911197E00FF11F8D
:10115000B08010826D917C916C0F7D1F61157105BF
:1011600061F0FB0101900020E9F73197AF01461BC8
:10117000570BC7010E94B30213C0F7018081918110
:10118000009711F00E94DF15D70111961C921E9254
:1011900015961C921E92149713961C921E921297EB
:1011A000D601ED91FC91E00FF11FB082C701DF91F4
:1011B000CF911F910F91FF90EF90DF90CF90BF9054
:1011C000089590E0FC01E253FF4F2491FC01E654A6
:1011D000FF4F8491882399F090E0880F991FFC01BC
:1011E000E055FF4FA591B491FC01EA55FF4F859161
:1011F00094918FB7F894EC91E22BEC938FBF089504
:10120000009769F0FC0101900020E9F73197AF01E8
:10121000481B590BBC018AE692E00C94BA0080E0AE
:1012200090E008958F929F92AF92BF920F931F9379
:10123000CF93DF93CDB7DEB7A1970FB6F894DEBF9B
:101240000FBECDBF19A2423008F44AE08E010F5DF7
:101250001F4F842E912CA12CB12CA50194010E942A
:10126000AF13E62FB901CA0101501109EA3014F495
:10127000E05D01C0E95CD801EC93232B242B252BE6
:1012800061F7C8010E940009A1960FB6F894DEBF6D
:101290000FBECDBFDF91CF911F910F91BF90AF9047
:1012A0009F908F900895E0916A02F0916B020190F7
:1012B000F081E02D682F8AE692E009948F929F9248
:1012C000AF92BF92CF92DF92EF92FF92CF93C1E0A5
:1012D000019709F0C0E090915E0381E08927C8136F
:1012E00048C0E0914203F0914303C080D180E28086
:1012F000F380C0924A03D0924B03E0924C03F092E9
:101300004D03E0914003F091410380819181A281DE
:10131000B38180934E0390934F03A0935003B093F7
:10132000510380905A0390905B03A0905C03B090AF
:101330005D03A5019401C701B6010E94E5141816CA
:1013400084F08090560390905703A0905803B0907B
:101350005903A5019401C701B6010E94141987FF22
:1013600008C080924A0390924B03A0924C03B09223
:101370004D03C0935E03CF91FF90EF90DF90CF902D
:10138000BF90AF909F908F9008954F925F926F9211
:101390007F928F929F92AF92BF92CF92DF92EF9205
:1013A000FF926B017C01B42E9B01AC010E943015B1
:1013B000882319F085E691E027C026013701E894DB
:1013C00077F82FEF3FEF4FE75FE7C301B2010E94CD
:1013D000301581110DC02FEF3FEF4FE75FE7C301DD
:1013E000B2010E94141918161CF489E691E00CC091
:1013F0002FEF3FEF4FE75FE4C701B6010E94E5140E
:10140000181684F48DE691E0FF90EF90DF90CF9076
:10141000BF90AF909F908F907F906F905F904F9014
:101420000C9400092FEF3FEF4FE75FECC701B601C7
:101430000E94141987FDE6CF20E030E0A901C70122
:10144000B6010E94141987FF09C08DE20E9453095A
:101450004C01F7FAF094F7F8F09402C0812C912C2B
:10146000A12C60E070E080E09FE3AB1441F020E04D
:1014700030E040E251E40E944414A394F6CF9B0173
:10148000AC01C701B6010E94D8132B013C010E9498
:10149000B6146B017C010E9419199B01AC01C301B8
:1014A000B2010E94D7132B013C014AE0C701B601EB
:1014B0000E9412097C01E80CF91CBB2031F081E785
:1014C00091E00E940009E80EF91EDB2CDD2021F1DD
:1014D00020E030E040E251E4C301B2010E947A19F9
:1014E0002B013C010E94B6144B01A12CB12C4AE007
:1014F000C501B4010E941209E80EF91EC501B4012C
:101500000E9419199B01AC01C301B2010E94D713BB
:101510002B013C01DA94DACFC701FF90EF90DF9006
:10152000CF90BF90AF909F908F907F906F905F9083
:101530004F900895CF93DF93CDB7DEB7A5970FB641
:10154000F894DEBF0FBECDBF789484B5826084BDB1
:1015500084B5816084BD85B5826085BD85B58160B7
:1015600085BD80916E00816080936E001092810035
:1015700080918100826080938100809181008160F0
:1015800080938100809180008160809380008091B1
:10159000B10084608093B1008091B000816080933D
:1015A000B00080917A00846080937A0080917A0004
:1015B000826080937A0080917A00816080937A00C3
:1015C00080917A00806880937A001092C100E09147
:1015D0007A02F0917B0282E08083E0917602F091C2
:1015E00077021082E0917802F091790287E6808399
:1015F00010928202E0917E02F0917F0286E0808369
:10160000E0917C02F0917D02808180618083E09195
:101610007C02F0917D02808188608083E0917C0271
:10162000F0917D02808180688083E0917C02F0915E
:101630007D0280818F7D808399E288E10FB6F894E6
:10164000A895809360000FBE909360001092B9003F
:1016500088E98093B80080E388B96AE0CE010196FA
:101660000E940406412C30E4532E3CE1632E36E404
:10167000732E49865A866B867C86812C912C4BEE84
:10168000A42E42E4B42E8D829E82AF82B886C12CF5
:101690005AE6D52E5AE1E52E56E4F52ECD86DE86A5
:1016A000EF86F88AC982DA82EB82FC8281E1FE0150
:1016B0003196A8E7B3E001900D928A95E1F769E0D1
:1016C000CE0101960E94040649865A866B867C8666
:1016D0008D829E82AF82B886CD86DE86EF86F88ABE
:1016E000C982DA82EB82FC8281E1FE013196A7E6B3
:1016F000B3E001900D928A95E1F71FB7F8948091BD
:10170000F701811124C0E4ECF0E08491E8EDF0E011
:101710009491E82FF0E0EE0FFF1FE055FF4FA591E9
:10172000B491EC91E92321F461E08AE00E943B034B
:101730008AE00E94E1088CB580618CBD8CB5806424
:101740008CBD8DE00E94E1088BE00E94E108809151
:10175000F7018F5F8093F7011FBF80E090E0A8EC56
:10176000B2E48093780390937903A0937A03B093C3
:101770007B038093670390936803A0936903B093FE
:101780006A0310921A0310921B0310921C0310920A
:101790001D0310915E03112309F446C080913E039E
:1017A00090913F03892B09F43FC02091320330917F
:1017B0003303409134035091350360E070E0CB0176
:1017C0000E94D713609332037093330380933403E2
:1017D00090933503209136033091370340913803BD
:1017E0005091390360E070E0CB010E94D713609301
:1017F0003603709337038093380390933903209115
:101800003A0330913B0340913C0350913D0360E02B
:1018100070E0CB010E94D71360933A0370933B03AF
:1018200080933C0390933D0310923F0310923E033C
:1018300010925603109257031092580310925903B6
:10184000812C912C80E2A82E81E4B82E80925A033C
:1018500090925B03A0925C03B0925D03112309F4A4
:1018600056C00091420310914303D801CD90DD9002
:10187000ED90FC90A5019401C701B6010E94E5140A
:10188000181634F4F80180829182A282B3820FC0CC
:1018900020E030E0A901C701B6010E94141987FFBA
:1018A00006C0D8011D921D921D921C921397809024
:1018B0004A0390904B03A0904C03B0904D03C0900E
:1018C0005A03D0905B03E0905C03F0905D03A701A6
:1018D0009601C501B4010E94E514181684F0C09069
:1018E0005603D0905703E0905803F0905903A70196
:1018F0009601C501B4010E94141987FF08C0C09267
:101900004A03D0924B03E0924C03F0924D03609156
:1019100052037091530380915403909155030E9498
:1019200019199B01AC0160E070E088E492E40E9428
:1019300044146B017C019B01AC01609136037091F2
:10194000370380913803909139030E947A1960938C
:101950003603709337038093380390933903A701BC
:10196000960160913A0370913B0380913C03909102
:101970003D030E94441460933A0370933B038093A9
:101980003C0390933D0382E390E0A0E0B0E08093BD
:10199000520390935303A0935403B093550380E0F4
:1019A00090E00E945E090E9481070E94C906A895E6
:1019B0008AE692E00E940701181619060CF0ECC1A5
:1019C000198E188E1B8E1A8E1D8E1C8E40E050E0D4
:1019D00064E671E0CE0148960E94B3028AE692E086
:1019E0000E9407011816190614F58AE692E00E9473
:1019F000E500F82E89831A820C8D1D8D0F5F1F4F15
:101A0000B801CE0148960E948C02882369F0288D87
:101A1000398D8C8D9D8DBE016F5F7F4F820F931F1F
:101A20000E944F171D8F0C8FBAE0FB12D7CF4C8D41
:101A30005D8D4115510509F4ABC11B8A1A8A1D8AB7
:101A40001C8A1F8A1E8A688D798D6115710521F0A7
:101A5000CE0142960E94B30260E070E0CE01429651
:101A60000E947B02082E000C990BAA0BBB0BFC01F9
:101A7000E256F109E531F10508F086C1EC5CFF4F53
:101A80000C94D11310921D017FC1E1E0E0931D0180
:101A90007BC142E050E0BE016E5E7F4FCE010196F9
:101AA0000E94700889819A81009729F00E945A1734
:101AB0009B01AC0103C020E030E0A901A8EEB3E037
:101AC0000E943B1A60930001709301018093020110
:101AD000909303014BC1109289011092880154C167
:101AE00042E050E0BE016E5E7F4FCE0101960E9443
:101AF0007008CE0101960E9470026093EF0170930E
:101B0000F0018093F1019093F2012BC042E050E08C
:101B1000BE016E5E7F4FCE0101960E947008CE011D
:101B200001960E94700260938401709385018093F6
:101B300086019093870115C042E050E0BE016E5EC1
:101B40007F4FCE0101960E947008CE0101960E943F
:101B50007002609380017093810180938201909361
:101B60008301CE0101960E94DE020E94C9060CC1CB
:101B700062E070E0CE0142960E947B028337C9F496
:101B800044E050E0BE016E5E7F4FCE0101960E94A0
:101B90007008CE0101960E94700260931A03709340
:101BA0001B0380931C0390931D03CE0101960E949A
:101BB000DE0262E070E0CE0142960E947B02803736
:101BC000A9F544E050E0BE016E5E7F4FCE01019664
:101BD0000E947008CE0101960E94700260935F031C
:101BE000709360038093610390936203CE0101962A
:101BF0000E94DE02C0902E03D0902F03E0903003AD
:101C0000F090310300912A0310912B0320912C03B3
:101C100030912D0340915F03509160036091610307
:101C20007091620386E293E00E94160662E070E023
:101C3000CE0142960E947B028936A9F544E050E02D
:101C4000BE016E5E7F4FCE0101960E947008CE01EC
:101C500001960E94700260931E0170931F01809391
:101C6000200190932101CE0101960E94DE02C090D6
:101C70002E03D0902F03E0903003F09031030091B9
:101C80001E0110911F0120912001309121014091EE
:101C9000260350912703609128037091290386E25F
:101CA00093E00E94160662E070E0CE0142960E9428
:101CB0007B028436A9F544E050E0BE016E5E7F4FA2
:101CC000CE0101960E947008CE0101960E9470021A
:101CD000609363037093640380936503909366033A
:101CE000CE0101960E94DE02C0906303D09064038F
:101CF000E0906503F090660300912A0310912B0396
:101D000020912C0330912D034091260350912703FD
:101D1000609128037091290386E293E00E941606E1
:101D200062E070E0CE0142960E947B028D3661F542
:101D300064E070E0CE0142960E947B0280931C0119
:101D400023C042E050E0BE016E5E7F4FCE0101969F
:101D50000E947008CE0101960E94700260931E03DB
:101D600070931F038093200390932103CE0101966B
:101D70000E94DE0209C080915E03882309F480C3BB
:101D800080E090E00E945E09CE0142960E94DE0251
:101D9000CE0148960E94DE0280911D018823F1F158
:101DA0000E9480040091F8011091F9012091FA013C
:101DB0003091FB01DC01CB01801B910BA20BB30B1B
:101DC0000091000110910101209102013091030165
:101DD000081719072A073B0708F580918801909199
:101DE0008901892B21F010928901109288010E94AB
:101DF00081070E94C906809188019091890101960E
:101E000090938901809388010E9480046093F80177
:101E10007093F9018093FA019093FB0180911C016A
:101E2000833769F08437A1F0803711F5809116026D
:101E300090911702A0911802B091190211C08091DF
:101E4000120290911302A0911402B091150208C0E1
:101E500080910E0290910F02A0911002B091110298
:101E60008093220390932303A0932403B09325032C
:101E700080915E03882309F417C10E9480046E8F4D
:101E80007F8F88A399A38091460390914703A091E7
:101E90004803B09149034E8D5F8D68A179A1481B1D
:101EA000590B6A0B7B0B8091520390915303A091C5
:101EB0005403B0915503481759076A077B0708F484
:101EC000F3C0E0914003F091410380809180A280B3
:101ED000B380E0914403F0914503A5019401608132
:101EE0007181828193810E94D7136AA37BA38CA303
:101EF0009DA32091360330913703409138035091D0
:101F000039030E947A1920914A0330914B03409182
:101F10004C0350914D030E94D8136B017C016093D8
:101F20004A0370934B0380934C0390934D0310919D
:101F30005A0300915B0330905C0320905D03212FD6
:101F4000302F432D522D0E94E51418166CF4812F6A
:101F5000902FA32DB22D80934A0390934B03A0930F
:101F60004C03B0934D0318C0409056035090570354
:101F70006090580370905903A3019201C701B60104
:101F80000E94141987FF08C040924A0350924B03E5
:101F900060924C0370924D032091320330913303D1
:101FA00040913403509135036AA17BA18CA19DA17E
:101FB0000E947A1920914A0330914B0340914C03BF
:101FC00050914D030E94D8136B017C0120914E0368
:101FD00030914F034091500350915103C501B4011A
:101FE0000E94D71320913A0330913B0340913C0368
:101FF00050913D030E947A199B01AC01C701B601C3
:102000000E94D7136B017C01212F302F432D522DBD
:102010000E94E5141816B4F010915603009157036E
:102020003090580320905903212F302F432D522DEB
:10203000B601C7010E94141987FD04C01C2D0D2D87
:102040003E2C2F2CE0914203F0914303812F902FDF
:10205000A32DB22D80839183A283B38380924E03FC
:1020600090924F03A0925003B09251032E8D3F8D5A
:1020700048A159A120934603309347034093480356
:102080005093490380911E0390911F03A091200358
:10209000B09121038093EF019093F001A093F1019F
:1020A000B093F2010E94C9060E9480040E9419198F
:1020B00060930A0270930B0280930C0290930D02BE
:1020C00031E030938A0148E64093FC0110920B0303
:1020D00010920A0360E08EE093E00E943F0290912C
:1020E0000A03913208F04AC0809109038111FCCFA4
:1020F00052E050930903A1E0A0930803BFEFB0930F
:10210000CE011092CD019093CC01ABE8B1E0EBEAA7
:10211000F1E02E2F4BEA51E0241B291718F42D91E2
:102120002193F7CF1092CB019091CB01906D9093BA
:10213000CB0190910703913061F4109207039091C5
:10214000CB019093BB009091BC0093FDF8CF95EC30
:1021500001C095EE9093BC00909109039230E1F399
:102160009091CE019F3F79F08091CE01803241F075
:102170008091CE01803331F084E005C081E003C05E
:1021800082E001C083E010920B0310920A031092C8
:102190008A01882319F01092FD01AAC051E05093E2
:1021A000FD01809109038111FCCF81E08093090337
:1021B000809308039FEF9093CE011092CD0186E0AB
:1021C0008093CC01A1E0A093CB018091CB01806DE5
:1021D0008093CB0180910703813061F41092070353
:1021E0008091CB018093BB008091BC0083FDF8CF30
:1021F00085EC01C085EE8093BC008091090381309D
:10220000E1F38091CD01873018F48091CD0101C0B8
:1022100087E0ABEAB1E0EFECF1E09E2F2FEC31E08C
:10222000921B981718F49D919193F7CF10920D037C
:1022300080930C03873008F45BC08EE093E00E942B
:10224000F301C82E8695869586958E70D82EDD0C66
:10225000DD0C8D0D9C2D9F70D82ED90E8EE093E055
:102260000E94F301982F92959F708F70182F3AE07B
:10227000939F100D11248EE093E00E94F301082F2C
:102280000695069506950670902F990F990F090FE0
:102290008F70080F8EE093E00E94F3018EE093E0D0
:1022A0000E94F301982F92959F708F70F82E4AE04C
:1022B000949FF00C11248EE093E00E94F301982F7C
:1022C00092959F708F70E82E5AE0959FE00C112434
:1022D0008EE093E00E94F301682F6F70625E982F8A
:1022E00092959F708AE0989F600D1124C7FEEDC003
:1022F0006091220370912303809124039091250320
:1023000042E00E94C50980E691E00E9400096091C8
:102310001A0370911B0380911C0390911D0342E0EE
:102320000E94C50980E691E00E94000960911E03A9
:1023300070911F03809120039091210342E00E943D
:10234000C50980E691E00E9400098FE00E944404E4
:10235000BC01990F880B990B0E941B1920E030E0FB
:1023600040EA5BE30E947A1920E030E048EC52E456
:102370000E947A1960930602709307028093080204
:10238000909309028EE00E944404BC01990F880BCF
:10239000990B0E941B1920E030E040EA5BE30E94A9
:1023A0007A19609316027093170280931802909323
:1023B000190280E10E944404BC01990F880B990B1B
:1023C0000E941B196093020270930302809304021F
:1023D0009093050281E10E944404BC01990F880B8F
:1023E000990B0E941B196093FE017093FF0180936B
:1023F00000029093010284EB90E00E94B807609382
:10240000120270931302809314029093150286EBCC
:1024100090E00E94B80760930E0270930F028093C1
:1024200010029093110204E011E0B1E00C311B079F
:1024300079F0D801ED91FD918D01608171818281EA
:10244000938142E00E94C5098CE20E945309EDCFBE
:1024500082E691E00E9400090E945B046B017C010E
:102460000E945B04DC01CB018C199D09AE09BF09F8
:10247000883E9340A105B10598F30E94A70197CA31
:102480008091EF019091F001A091F101B091F201E2
:1024900080931E0390931F03A0932003B093210306
:1024A00081E090E00E945E098091EF019091F0013F
:1024B000A091F101B091F20180931E0390931F034C
:1024C000A0932003B09321035FCC70E06E54784F4B
:1024D000072E000C880B990B4AE00E9412098DE22E
:1024E0000E9453098E2D90E00E9447088DE20E94C1
:1024F00053098F2D90E00E9447088FE50E945309F1
:10250000802F90E00E9447088AE30E945309812FA0
:1025100090E00E9447088AE30E9453098D2D90E0C5
:102520000E9447088CE20E9453090E9480044AE0FE
:102530000E94120980E691E00E940009D9CE4F92D4
:102540005F926F927F928F929F92AF92BF92CF9243
:10255000DF92EF92FF920F931F93CF93DF93EAE600
:10256000F2E01382128288EE93E0A0E0B0E0848370
:102570009583A683B78324E431E03183208325EC5F
:1025800030E03587248724EC30E03787268720EC3D
:1025900030E0318B208B21EC30E0338B228B22EC2E
:1025A00030E0358B248B26EC30E0378B268B118E78
:1025B000128E138E148EEEE0F3E013821282848367
:1025C0009583A683B78384E591E0918380831092FD
:1025D0000D0310920C0310920B0310920A03109239
:1025E000090381E0809308031092070361E082E110
:1025F0000E943B0361E083E10E943B03E9EBF0E0D2
:1026000080818E7F808380818D7F808388E480932A
:10261000B80085E48093BC006AE088E793E00E94FC
:102620000406E8E7F3E0412C80E4582E8CE1682EA4
:1026300086E4782E4086518662867386812C912CA2
:102640009BEEA92E92E4B92E84829582A682B7824F
:10265000C12C2AE6D22E2AE1E22E26E4F22EC486EE
:10266000D586E686F786C082D182E282F38269E06F
:1026700087E693E00E940406E7E6F3E04086518691
:102680006286738684829582A682B782C486D58646
:10269000E686F786C082D182E282F382C09063032D
:1026A000D0906403E0906503F090660300911E01F2
:1026B00010911F01209120013091210140915F0371
:1026C000509160036091610370916203C6E2D3E0B0
:1026D0008EE193E09D8F8C8F82E293E09B8F8A8FB7
:1026E0008AE193E09F8F8E8F18AE18AA19AA1AAAB2
:1026F0001BAA80E090E0AFE7B3E48CAB9DABAEAB40
:10270000BFAB84E690E0A0E0B0E08CA79DA7AEA7A9
:10271000BFA7198E188ECE010E9416060E94800453
:10272000CCA4DDA4EEA4FFA4DC01CB018C199D098F
:10273000AE09BF0988A399A3AAA3BBA3DF91CF9138
:102740001F910F91FF90EF90DF90CF90BF90AF90CF
:102750009F908F907F906F905F904F900895A1E22F
:102760001A2EAA1BBB1BFD010DC0AA1FBB1FEE1F0B
:10277000FF1FA217B307E407F50720F0A21BB30B56
:10278000E40BF50B661F771F881F991F1A9469F7D2
:1027900060957095809590959B01AC01BD01CF012E
:1027A0000895EE0FFF1F0590F491E02D0994505805
:1027B000BB27AA270E94EF130C94011A0E94F31959
:1027C00038F00E94FA1920F039F49F3F19F426F4EA
:1027D0000C94F0190EF4E095E7FB0C94EA19E92F3C
:1027E0000E94121A58F3BA176207730784079507F5
:1027F00020F079F4A6F50C94341A0EF4E0950B2E23
:10280000BA2FA02D0B01B90190010C01CA01A00142
:102810001124FF27591B99F0593F50F4503E68F19D
:102820001A16F040A22F232F342F4427585FF3CFDE
:10283000469537952795A795F0405395C9F77EF4AF
:102840001F16BA0B620B730B840BBAF09150A1F0F8
:10285000FF0FBB1F661F771F881FC2F70EC0BA0F7E
:10286000621F731F841F48F4879577956795B79506
:10287000F7959E3F08F0B0CF9395880F08F0992701
:10288000EE0F9795879508950E9458140C94011A9D
:102890000E94FA1958F00E94F31940F029F45F3FA2
:1028A00029F00C94EA1951110C94351A0C94F01972
:1028B0000E94121A68F39923B1F3552391F3951BE3
:1028C000550BBB27AA2762177307840738F09F5F51
:1028D0005F4F220F331F441FAA1FA9F335D00E2EBE
:1028E0003AF0E0E832D091505040E695001CCAF72B
:1028F0002BD0FE2F29D0660F771F881FBB1F2617EE
:1029000037074807AB07B0E809F0BB0B802DBF01C4
:10291000FF2793585F4F3AF09E3F510578F00C9493
:10292000EA190C94351A5F3FE4F3983ED4F3869588
:1029300077956795B795F7959F5FC9F7880F911DB4
:102940009695879597F90895E1E0660F771F881FA0
:10295000BB1F621773078407BA0720F0621B730B53
:10296000840BBA0BEE1F88F7E09508950E941A1A9F
:1029700088F09F5798F0B92F9927B751B0F0E1F040
:10298000660F771F881F991F1AF0BA95C9F714C0F0
:10299000B13091F00E94341AB1E008950C94341AC9
:1029A000672F782F8827B85F39F0B93FCCF3869529
:1029B00077956795B395D9F73EF490958095709586
:1029C00061957F4F8F4F9F4F08950E94561908F4CD
:1029D0008FEF089519F416F40C94F0190C94351532
:1029E0000E941A1AB8F39923C9F3B6F39F57550BEF
:1029F00087FF0E9443150024A0E640EA900180581A
:102A00005695979528F4805C660F771F881F20F0F5
:102A100026173707480730F4621B730B840B2029F5
:102A200031294A2BA69517940794202531254A274A
:102A300058F7660F771F881F20F0261737074807BB
:102A400030F4620B730B840B200D311D411DA095DA
:102A500081F7B901842F9158880F9695879508952D
:102A60000E945619880B990B08959F3F31F09150A1
:102A700020F4879577956795B795880F911D969562
:102A8000879597F9089591505040660F771F881FDA
:102A9000D2F70895CF93DF938230910510F482E04E
:102AA00090E0E0918B03F0918C0320E030E0C0E0F7
:102AB000D0E0309711F14081518148175907C0F09B
:102AC0004817590761F482819381209719F09B83FD
:102AD0008A832BC090938C0380938B0326C021158F
:102AE000310519F04217530718F49A01BE01DF01AE
:102AF000EF010280F381E02DDCCF2115310509F1D2
:102B0000281B390B2430310590F412968D919C913D
:102B100013976115710521F0FB019383828304C033
:102B200090938C0380938B03FD01329644C0FD018A
:102B3000E20FF31F81939193225031092D933C931F
:102B40003AC02091890330918A03232B41F42091CC
:102B500024013091250130938A0320938903209129
:102B60002201309123012115310541F42DB73EB7E3
:102B70004091260150912701241B350BE0918903D8
:102B8000F0918A03E217F307A0F42E1B3F0B2817DE
:102B9000390778F0AC014E5F5F4F2417350748F0D6
:102BA0004E0F5F1F50938A03409389038193919343
:102BB00002C0E0E0F0E0CF01DF91CF9108950F93E4
:102BC0001F93CF93DF93009709F48CC0FC013297D9
:102BD0001382128200918B0310918C030115110551
:102BE00081F420813181820F931F209189033091DC
:102BF0008A032817390779F5F0938A03E09389034C
:102C000071C0D80140E050E0AE17BF0750F41296F3
:102C10002D913C911397AD012115310509F1D90191
:102C2000F3CF9D01DA013383228360817181860FA6
:102C3000971F8217930769F4EC0128813981260FC9
:102C4000371F2E5F3F4F318320838A819B8193837F
:102C50008283452B29F4F0938C03E0938B0342C0CD
:102C60001396FC93EE931297ED01499159919E01B1
:102C7000240F351FE217F30771F480819181840FCF
:102C8000951F029611969C938E9382819381139641
:102C90009C938E931297E0E0F0E0D80112968D910C
:102CA0009C911397009719F0F8018C01F6CF8D9144
:102CB0009C9198012E5F3F4F820F931F20918903B3
:102CC00030918A032817390769F4309729F4109254
:102CD0008C0310928B0302C01382128210938A031A
:102CE00000938903DF91CF911F910F910895A0E088
:102CF000B0E0EDE7F6E10C944A1AEC01009721F4FC
:102D0000CB010E944A15B8C0FC01E60FF71F9C01D9
:102D100022503109E217F30708F4ACC0D9010D9134
:102D20001C91119706171707B0F00530110508F42C
:102D30009FC0C80104978617970708F499C00250EE
:102D40001109061B170B019311936D937C93CF010F
:102D50000E94DF158DC05B01A01AB10A4C01800EE4
:102D6000911EA0918B03B0918C0340E050E0E12CC8
:102D7000F12C109709F44AC0A815B905D1F56D904A
:102D80007C901197630182E0C80ED11CCA14DB0449
:102D900080F1A3014A195B096A0182E0C80ED11CC7
:102DA0001296BC9012971396AC91B5E0CB16D10455
:102DB00040F0B282A38351834083D9016D937C9309
:102DC0000AC00E5F1F4FC301800F911FF90191834D
:102DD0008083EB2DFA2FE114F10431F0D701139623
:102DE000FC93EE93129744C0F0938C03E0938B0313
:102DF0003FC08D919C9111974817590708F4AC0179
:102E00007D0112960D90BC91A02DB3CF80918903C6
:102E100090918A0388159905E1F446175707C8F47D
:102E20008091220190912301009741F48DB79EB7C4
:102E30004091260150912701841B950BE817F90753
:102E4000C8F4F0938A03E0938903F90171836083E6
:102E50000FC0CB010E944A157C01009759F0A801D0
:102E6000BE010E944617CE010E94DF15C70104C0B3
:102E7000CE0102C080E090E0CDB7DEB7EEE00C946A
:102E8000661A81E090E0F8940C948C1AFB01DC0146
:102E900002C001900D9241505040D8F70895FB01B7
:102EA000DC0101900D920020E1F708956627772755
:102EB0000C9496171F93FC0199278827BC01E8946E
:102EC00011911032E9F3193010F01E30C8F31B32A3
:102ED00051F01D3249F4689406C00E948117610FB9
:102EE000711D811D911D119110531A30B0F33EF4E4
:102EF00090958095709561957F4F8F4F9F4F1F9153
:102F00000895592F482F372F262F660F771F881FB8
:102F1000991F660F771F881F991F620F731F841FE9
:102F2000951F660F771F881F991F0895A0E0B0E0D6
:102F3000ECE9F7E10C944A1AEC017B01611571058B
:102F400019F0DB018D939C938E010F5F1F4F7880EA
:102F5000872D90E00E94F318892B11F0E801F4CF3F
:102F6000BDE27B1205C00F5F1F4F7980C1E008C032
:102F7000EBE27E1204C08E010E5F1F4F7980C0E02D
:102F80006801F1E0CF1AD10843E050E06AEE70E04A
:102F9000C6010E94FC18892BF1F4680122E0C20EE0
:102FA000D11C45E050E065EE70E0C6010E94FC18BF
:102FB000892B21F4680187E0C80ED11CE114F104CB
:102FC00019F0D701CD92DC92C111FFC060E070E032
:102FD00080E89FE703C143E050E062EE70E0C60185
:102FE0000E94FC18892B51F4E114F10409F4F2C099
:102FF0000E5F1F4FF70111830083ECC0680160E092
:1030000070E0CB0100E010E0F601D0EDD70DDA3032
:1030100058F52C2F2260622E2C2F2870C2FF05C07D
:10302000211128C00F5F1F4F25C0222311F001502E
:103030001109A5E0B0E09B01AC010E943B1A4B01D5
:103040005C01880C991CAA1CBB1CC501B4016D0F46
:10305000711D811D911D6839A9E97A078A07A9E1C7
:103060009A0740F0C66005C0DE3F51F4C3FD44C07E
:10307000C8606C2EBFEFCB1ADB0A7080C62DC4CFA0
:103080002D2F2F7D2531C1F540814D3211F4C061C6
:1030900006C04B3221F0319621E030E006C0329676
:1030A000D60111964C9122E030E0A0EDA40FAA3099
:1030B00018F0E21BF30B20C040E050E04038BCE0C9
:1030C0005B075CF49A01220F331F220F331F420F5C
:1030D000531F440F551F4A0F511D3196DF011197A1
:1030E0002C91A0EDA20FAA3048F3C4FF03C0519564
:1030F00041955109040F151FC1FF07C0E114F104E8
:1031000021F03197D701ED93FC930E941919C370F8
:10311000C33019F06B017C0106C06B017C01F7FA2A
:10312000F094F7F8F09420E030E0A901C701B6016F
:103130000E941419882309F445C017FF06C0119591
:1031400001951109C1E0D1E002C0C9E1D1E05E0101
:10315000B8E1AB1AB1084601BE2DAF2D90E2E92EC1
:10316000F12C0E151F0584F0FE0125913591459136
:103170005491B4018B2F9A2F0E947A194B01B82FCA
:10318000A92F0E191F09EDCF2497F594E794CA15BE
:10319000DB0539F76401EB2EFA2E8E2D880F8F2D6B
:1031A000881F8F3F49F020E030E0A901C701B60138
:1031B0000E941419811106C082E290E090938E0360
:1031C00080938D03C701B60109C060E070E080E81C
:1031D0009FEF04C060E070E080EC9FE7CDB7DEB702
:1031E000EEE00C94661A91110C94E719803219F0F4
:1031F00089508550C8F70895FB01DC0141505040CB
:1032000088F08D9181341CF08B350CF4805E6591D3
:1032100061341CF06B350CF4605E861B611171F338
:10322000990B0895881BFCCF0E94561908F481E081
:103230000895E89409C097FB3EF4909580957095A9
:1032400061957F4F8F4F9F4F9923A9F0F92F96E9F2
:10325000BB279395F695879577956795B795F11167
:10326000F8CFFAF4BB0F11F460FF1BC06F5F7F4F04
:103270008F4F9F4F16C0882311F096E911C0772316
:1032800021F09EE8872F762F05C0662371F096E81F
:10329000862F70E060E02AF09A95660F771F881FEE
:1032A000DAF7880F9695879597F90895990F000892
:1032B000550FAA0BE0E8FEEF16161706E807F90708
:1032C000C0F012161306E407F50798F0621B730BA3
:1032D000840B950B39F40A2661F0232B242B252B24
:1032E00021F408950A2609F4A140A6958FEF811DC7
:1032F000811D08950E948D190C94011A0E94F319E2
:1033000038F00E94FA1920F0952311F00C94EA1974
:103310000C94F01911240C94351A0E94121A70F3AF
:10332000959FC1F3950F50E0551F629FF001729F6A
:10333000BB27F00DB11D639FAA27F00DB11DAA1F79
:10334000649F6627B00DA11D661F829F2227B00DC6
:10335000A11D621F739FB00DA11D621F839FA00D51
:10336000611D221F749F3327A00D611D231F849FA1
:10337000600D211D822F762F6A2F11249F575040F8
:103380009AF0F1F088234AF0EE0FFF1FBB1F661F73
:10339000771F881F91505040A9F79E3F510580F03C
:1033A0000C94EA190C94351A5F3FE4F3983ED4F379
:1033B000869577956795B795F795E7959F5FC1F7E0
:1033C000FE2B880F911D9695879597F9089599275B
:1033D0008827089597F99F6780E870E060E0089576
:1033E0009FEF80EC089500240A941616170618061D
:1033F0000906089500240A941216130614060506F9
:103400000895092E0394000C11F4882352F0BB0F89
:1034100040F4BF2B11F460FF04C06F5F7F4F8F4FEC
:103420009F4F089557FD9058440F551F59F05F3F27
:1034300071F04795880F97FB991F61F09F3F79F0D6
:1034400087950895121613061406551FF2CF469558
:10345000F1DF08C0161617061806991FF1CF8695DA
:103460007105610508940895E894BB2766277727BE
:10347000CB0197F908950E947D1AA59F900DB49FE6
:10348000900DA49F800D911D112408952F923F92BD
:103490004F925F926F927F928F929F92AF92BF9264
:1034A000CF92DF92EF92FF920F931F93CF93DF9310
:1034B000CDB7DEB7CA1BDB0B0FB6F894DEBF0FBE6D
:1034C000CDBF09942A88398848885F846E847D84BA
:1034D0008C849B84AA84B984C884DF80EE80FD80BC
:1034E0000C811B81AA81B981CE0FD11D0FB6F89432
:1034F000DEBF0FBECDBFED010895A29FB001B39F07
:10350000C001A39F700D811D1124911DB29F700DEC
:0C351000811D1124911D0895F894FFCF37
:10351C003075000016020E021202EF0184018001C8
:10352C007C0178017401F3010202FE0170010000BC
:10353C00A04000008F03800000000000CDCC4C3D6B
:10354C00CDCCCC3D9A99193ECDCC4C3E0000803E62
:10355C00000000003E01BA000701E500F9008501FA
:10356C00000000003F020F020702F301E401E30137
:10357C002C000D0A006E616E00696E66006F766637
:04358C00002E00000D
:00000001FF
