:100000000C945D000C9485000C9485000C94850084
:100010000C9485000C9485000C9485000C9485004C
:100020000C9485000C9485000C9485000C9485003C
:100030000C9485000C9485000C9485000C9485002C
:100040000C9423050C9485000C941B030C94F5026E
:100050000C9485000C9485000C9485000C9485000C
:100060000C946D050C94850000000008000201004E
:100070000003040700000000000000000000000072
:10008000250028002B0000000000240027002A0083
:10009000040404040404040402020202020203032E
:1000A0000303030301020408102040800102040836
:1000B0001020010204081020750B11241FBECFEF81
:1000C000D8E0DEBFCDBF11E0A0E0B1E0E4E4FDE1A7
:1000D00002C005900D92AA34B107D9F722E0AAE434
:1000E000B1E001C01D92AE3EB207E1F710E0CDE5F0
:1000F000D0E004C02197FE010E94590CCC35D107F5
:10010000C9F70E9440080C94A00E0C940000809146
:10011000BE0290E02091BF02821B91090895CF9208
:10012000DF92EF92FF920F931F93CF93DF936C01B7
:100130007A018B01C0E0D0E0CE15DF0589F0D8014F
:100140006D918D01D601ED91FC910190F081E02D32
:10015000C6010995892B11F47E0102C02196ECCFCE
:10016000C701DF91CF911F910F91FF90EF90DF902A
:10017000CF900895FC01918D828D981761F0828D4A
:10018000DF01A80FB11D5D968C91928D9F5F9F73CB
:10019000928F90E008958FEF9FEF0895FC01918D6D
:1001A000828D981731F0828DE80FF11D858D90E0DA
:1001B00008958FEF9FEF0895FC01918D228D892F77
:1001C00090E0805C9F4F821B91098F73992708955F
:1001D0008CE192E00E94DC0021E0892B09F420E010
:1001E000822F0895FC01848DDF01A80FB11DA35A51
:1001F000BF4F2C91848D90E001968F739927848F47
:10020000A689B7892C93A089B1898C9180648C933D
:10021000938D848D981306C00288F389E02D808128
:100220008F7D80830895EF92FF920F931F93CF935A
:10023000DF93EC0181E0888F9B8D8C8D981305C036
:10024000E889F989808185FD24C0F62E0B8D10E0A8
:100250000F5F1F4F0F731127E02E8C8DE8120CC01B
:100260000FB607FCFACFE889F989808185FFF5CFC1
:10027000CE010E94F200F1CF8B8DFE01E80FF11D3F
:10028000E35AFF4FF0820B8FEA89FB8980818062FD
:1002900007C0EE89FF896083E889F98980818064DD
:1002A000808381E090E0DF91CF911F910F91FF90CB
:1002B000EF900895CF93DF93EC01888D8823C9F0E8
:1002C000EA89FB89808185FD05C0A889B9898C915F
:1002D00086FD0FC00FB607FCF5CF808185FFF2CFFA
:1002E000A889B9898C9185FFEDCFCE010E94F200DB
:1002F000E7CFDF91CF91089580E090E0892B29F03E
:100300000E94E80081110C94000008958E3008F0DE
:100310008E508770806480937C0080917A00806426
:1003200080937A0080917A0086FDFCCF80917800DE
:100330002091790090E0922B089585ED8093BC0088
:100340008091BC0084FDFCCF1092BB0208954091C7
:100350007601262F30E0240F311D21323105DCF4E7
:100360002091BB022430C9F4FC0180E090E08617A4
:1003700058F4309176012191DC01AC5ABE4FA30FA5
:10038000B11D2C930196F3CF80917601680F609395
:10039000760180E0089581E0089582E0089508954F
:1003A000E091BF028091BE02E81730F4F0E0E9511D
:1003B000FE4F808190E008958FEF9FEF0895909118
:1003C000BF028091BE02981750F4E92FF0E0E95186
:1003D000FE4F208130E09F5F9093BF0202C02FEF5D
:1003E0003FEFC9010895CF92DF92EF92FF920F93F2
:1003F0001F93CF93DF937C01262F972F8A01809143
:10040000A101882391F0C62FD72F6E01C40ED51EEF
:10041000CC15DD0571F06991D701ED91FC9101904A
:10042000F081E02DC7010995F3CF642F822F0E9440
:10043000A701C801DF91CF911F910F91FF90EF901D
:10044000DF90CF900895CF93DF931F92CDB7DEB7A3
:1004500069832091A1012223D1F02091BC02203296
:1004600040F021E030E0FC013383228380E090E023
:1004700015C08091BD02E82FF0E0EE55FE4F998146
:1004800090838F5F8093BD028093BC0205C061E0C2
:10049000CE0101960E94A70181E090E00F90DF91CC
:1004A000CF91089524EA34E844E92093BC00909168
:1004B000BC0097FFFCCF9091B900987F983011F065
:1004C000903199F78093BB003093BC009091BC00B1
:1004D00097FFFCCF9091B900987F903211F098353A
:1004E00039F44093BC009091BC0094FDFCCFDDCF6B
:1004F00097E09093BB0094E89093BC009091BC006F
:1005000097FFFCCF9091B90094EA9093BC00909132
:10051000BC0097FFFCCF9091B900987F983011F004
:10052000903161F48F5F8093BB0084E88093BC00BE
:100530008091BC0087FFFCCF8091B90084EC809350
:10054000BC008091BC0087FFFCCF6091BB00862F70
:1005500090E024EC2093BC002091BC0027FFFCCF4E
:100560006091BB0024E82093BC002091BC0027FFD1
:10057000FCCF2091BB0024E92093BC002091BC005B
:1005800024FDFCCF6F7770E0762F6627680F791F08
:10059000072E000C880B990B0E94740D2AE037ED92
:1005A00043EA5CE30E94290E2AE037ED43E25CE374
:1005B0000E945F0C23E333E948E853E40E945F0C98
:1005C0000895CF93DF93EC010A9728F460E38CE160
:1005D00092E00E941301BE01DD0F880B990BDF91A1
:1005E000CF910C9418070E949B0E1F920F920FB68A
:1005F0000F9211242F933F934F935F936F937F93A9
:100600008F939F93AF93BF93EF93FF938CE192E00F
:100610000E94F200FF91EF91BF91AF919F918F9156
:100620007F916F915F914F913F912F910F900FBEEE
:100630000F901F9018951F920F920FB60F921124D2
:100640002F938F939F93EF93FF93E0912C02F09160
:100650002D028081E0913202F091330282FD12C0BE
:100660009081809135028F5F8F73209136028217BF
:1006700051F0E0913502F0E0E45EFD4F958F8093FC
:10068000350201C08081FF91EF919F918F912F9151
:100690000F900FBE0F901F90189590E0FC01E85945
:1006A000FF4F3491FC01EC55FF4F2491FC01E057C2
:1006B000FF4FE491EE2309F43BC0332339F133308B
:1006C00091F038F43130A9F0323001F584B58F7DE6
:1006D00012C0373091F03830A1F03430B9F4809145
:1006E00080008F7D03C0809180008F778093800091
:1006F0000DC084B58F7784BD09C08091B0008F771D
:1007000003C08091B0008F7D8093B000F0E0EE0FC9
:10071000FF1FE458FF4FA591B4918FB7F894EC9167
:10072000611103C020952E2301C02E2B2C938FBF67
:100730000895EF92FF921F93CF93DF931F92CDB74F
:10074000DEB77C01162F60E0FC01808949830E949E
:100750004D031EBD000049810DB407FEFDCF8EB5CF
:100760004EBD00000DB407FEFDCF8EB561E0F70170
:1007700080890F90DF91CF911F91FF90EF900C94A3
:100780004D034F925F926F927F928F929F92AF92A2
:10079000BF92CF92DF92EF92FF920F931F93CF936E
:1007A000DF93EC018B0169017A0120E030E0A901BF
:1007B000C701B6010E94CC0C18160CF071C048801D
:1007C00059806A807B808C849D84AE84BF84A5011F
:1007D0009401C301B2010E94CC0C882361F0A501F1
:1007E0009401C701B6010E94290EA30192010E9443
:1007F000D10C6B017C014C805D806E807F80A301F9
:100800009201C701B6010E945F0C6B017C01A3013C
:100810009201C501B4010E945F0C20E030E040E885
:100820005BE30E94290E9B01AC01C701B6010E9447
:10083000D10C0E94430D80E090E00E94720D20E0F8
:1008400030E040E05FE30E94600C0E94430D013005
:10085000110551F46F3F710509F018F4462F60E15E
:100860000CC040E061E109C06F3F710509F018F468
:10087000462F60E002C040E061E0CE01DF91CF9101
:100880001F910F91FF90EF90DF90CF90BF90AF90AE
:100890009F908F907F906F905F904F900C949903F2
:1008A00060E070E00130110519F7D8CFCF92DF92E8
:1008B000EF92FF92CF93DF93809152019091530179
:1008C000059708F46FC080914C0190914D010297FB
:1008D00008F446C080914A0190914B01892B51F157
:1008E00010920C0210920D0210920E0210920F0242
:1008F0001092000110920101109202011092030166
:100900001092040110920501109206011092070145
:100910000E941B086B017C010E941B08DC01CB01BB
:100920008C199D09AE09BF09883E9340A105B10508
:1009300078F7F2CF80E090E0A0EAB2E4809304017F
:1009400090930501A0930601B093070181E090E028
:1009500090934B0180934A0110924D0110924C01EB
:10096000C0914C01D0914D01FE01EE0FFF1FE85FD9
:10097000FE4F60817181072E000C880B990B0E943D
:10098000740D6093000170930101809302019093B4
:1009900003012196D0934D01C0934C011092530155
:1009A00010925201C0915201D0915301FE01EE0FFD
:1009B000FF1FE45FFE4F60817181072E000C880BE2
:1009C000990B0E94740D9B01AC0160934E017093D2
:1009D0004F01809350019093510160930C027093EA
:1009E0000D0280930E0290930F0261E070E08DED96
:1009F00092E00E94C10320910401309105014091D1
:100A000006015091070162E070E08DED92E00E94D6
:100A1000C1032091000130910101409102015091E8
:100A2000030162E070E08CEC92E00E94C103219629
:100A3000D0935301C0935201DF91CF91FF90EF907B
:100A4000DF90CF9008951F920F920FB60F9211244E
:100A50002F933F938F939F93AF93BF9380910802FF
:100A600090910902A0910A02B0910B0230919B0172
:100A700023E0230F2D3720F40196A11DB11D05C0E1
:100A800026E8230F0296A11DB11D20939B018093A0
:100A9000080290930902A0930A02B0930B0280917E
:100AA0009C0190919D01A0919E01B0919F010196A2
:100AB000A11DB11D80939C0190939D01A0939E0167
:100AC000B0939F01BF91AF919F918F913F912F91D3
:100AD0000F900FBE0F901F9018951F920F920FB698
:100AE0000F9211242F933F934F935F936F937F93B4
:100AF0008F939F93AF93BF93EF93FF938091B90030
:100B0000887F803609F49CC068F5883209F45BC0A0
:100B100090F4803109F454C038F4882309F4F6C005
:100B2000883009F44DC0F6C0883109F44CC08032D9
:100B300009F45DC0EFC0803409F468C048F4803324
:100B400009F455C0883309F0E5C08093E601D8C0A8
:100B5000803509F44FC0883509F45DC0883409F048
:100B6000D9C0D6C0883909F4C7C0A8F4883709F4B9
:100B700067C038F4883609F463C0803709F460C070
:100B8000C9C0883809F4B8C0803909F45FC080381A
:100B900009F0C0C05BC0803B09F486C038F4803ADD
:100BA00009F466C0883A09F47FC0B4C0803C09F4F7
:100BB000A7C0883C09F4A4C0883B09F48AC0AAC035
:100BC0008091E30110C09091E5018091E4019817B4
:100BD00070F5E091E50181E08E0F8093E501F0E092
:100BE000ED53FE4F80818093BB0085EC86C08093DF
:100BF000E6018EC0E091E50181E08E0F8093E50172
:100C00008091BB00F0E0ED53FE4F80839091E501B1
:100C10008091E4016EC0E091E50181E08E0F809348
:100C2000E5018091BB00F0E0ED53FE4F80838091A1
:100C3000BA0281116DC081E08093B90284EA61C07B
:100C400083E08093BB0210929A01CFCF80919A01EA
:100C5000803208F051C0E0919A0181E08E0F8093BC
:100C60009A018091BB00F0E0E658FE4F8083BDCF33
:100C700085EC8093BC001092BB0280919A01803277
:100C800030F4E0919A01F0E0E658FE4F1082609156
:100C90009A0170E0E0917801F09179018AE791E0A2
:100CA000099510929A0136C084E08093BB0210929D
:100CB000770110927601E0917401F0917501099528
:100CC00080917601811105C081E0809376011092B8
:100CD0005401E091770181E08E0F80937701F0E07D
:100CE000EC5AFE4F80818093BB00909177018091F8
:100CF0007601981708F479CF85E88093BC000AC084
:100D000085EC8093BC001092BB0204C01092E601F7
:100D10000E949D01FF91EF91BF91AF919F918F91A3
:100D20007F916F915F914F913F912F910F900FBEE7
:100D30000F901F90189590E0FC01EC55FF4F249107
:100D4000FC01E057FF4F8491882399F090E0880FD1
:100D5000991FFC01EA57FF4FA591B491FC01E4589B
:100D6000FF4F859194918FB7F894EC91E22BEC931F
:100D70008FBF0895009769F0FC0101900020E9F70A
:100D80003197AF01481B590BBC018CE192E00C94E8
:100D90008F0080E090E008958F929F92AF92BF9273
:100DA0000F931F93CF93DF93CDB7DEB7A1970FB605
:100DB000F894DEBF0FBECDBF19A2423008F44AE05E
:100DC0008E010F5D1F4F842E912CA12CB12CA501FB
:100DD00094010E94370CE62FB901CA010150110994
:100DE000EA3014F4E05D01C0E95CD801EC93232BF8
:100DF000242B252B61F7C8010E94BA06A1960FB6D5
:100E0000F894DEBF0FBECDBFDF91CF911F910F9140
:100E1000BF90AF909F908F900895E0911C02F09149
:100E20001D020190F081E02D682F8CE192E0099481
:100E3000CF92DF92EF92FF92CF93DF9397FF19C08B
:100E40006B017C018DE20E940D07EC01662777277C
:100E5000CB016C197D098E099F094AE00E94CC06DE
:100E60008C0F9D1FDF91CF91FF90EF90DF90CF907F
:100E700008954AE0DF91CF91FF90EF90DF90CF90FF
:100E80000C94CC064F925F926F927F928F929F92BA
:100E9000AF92BF92CF92DF92EF92FF926B017C01F3
:100EA000B42E9B01AC010E94960E882319F089E3B1
:100EB00091E027C026013701E89477F82FEF3FEF44
:100EC0004FE75FE7C301B2010E94960E81110DC08A
:100ED0002FEF3FEF4FE75FE7C301B2010E94CC0C59
:100EE00018161CF48DE391E00CC02FEF3FEF4FE795
:100EF0005FE4C701B6010E94240E181684F481E451
:100F000091E0FF90EF90DF90CF90BF90AF909F90D7
:100F10008F907F906F905F904F900C94BA062FEF58
:100F20003FEF4FE75FECC701B6010E94CC0C87FD95
:100F3000E6CF20E030E0A901C701B6010E94CC0C49
:100F400087FF09C08DE20E940D074C01F7FAF0946B
:100F5000F7F8F09402C0812C912CA12C60E070E095
:100F600080E09FE3AB1441F020E030E040E251E448
:100F70000E94D10CA394F6CF9B01AC01C701B6012E
:100F80000E94600C2B013C010E94430D6B017C010F
:100F90000E94720D9B01AC01C301B2010E945F0C63
:100FA0002B013C014AE0C701B6010E94CC067C013E
:100FB000E80CF91CBB2031F085E491E00E94BA06F0
:100FC000E80EF91EDB2CDD2021F120E030E040E2CC
:100FD00051E4C301B2010E94290E2B013C010E9481
:100FE000430D4B01A12CB12C4AE0C501B4010E9474
:100FF000CC06E80EF91EC501B4010E94720D9B01DA
:10100000AC01C301B2010E945F0C2B013C01DA94D8
:10101000DACFC701FF90EF90DF90CF90BF90AF90F5
:101020009F908F907F906F905F904F90089587E48E
:1010300091E00C94BA063FB7F89480919C0190918E
:101040009D01A0919E01B0919F0126B5A89B05C06E
:101050002F3F19F00196A11DB11D3FBFBA2FA92F37
:10106000982F8827820F911DA11DB11DBC01CD01B4
:1010700042E0660F771F881F991F4A95D1F70895A0
:10108000CF93DF9300D000D0CDB7DEB7789484B58E
:10109000826084BD84B5816084BD85B5826085BD74
:1010A00085B5816085BD80916E00816080936E0002
:1010B00010928100809181008260809381008091F4
:1010C00081008160809381008091800081608093A5
:1010D00080008091B10084608093B1008091B00065
:1010E00081608093B00080917A00846080937A0060
:1010F00080917A00826080937A0080917A0081608A
:1011000080937A0080917A00806880937A001092B0
:10111000C100E0912C02F0912D0282E08083E091E9
:101120002C02F0912D021082E0912802F091290208
:101130001082E0912A02F0912B0280E180831092CC
:101140003402E0913002F091310286E08083E09138
:101150002E02F0912F02808180618083E0912E0227
:10116000F0912F02808188608083E0912E02F091BF
:101170002F02808180688083E0912E02F0912F02FF
:1011800080818F7D80831092B90088E98093B800B8
:1011900080E388B91FB7F8948091A001811124C021
:1011A000EAE9F0E08491EEEAF0E09491E82FF0E0D3
:1011B000EE0FFF1FEA57FF4FA591B491EC91E92381
:1011C00021F461E08AE00E944D038AE00E949B06C0
:1011D0008CB580618CBD8CB580648CBD8DE00E9427
:1011E0009B068BE00E949B068091A0018F5F8093FD
:1011F000A0011FBF80E090E0A8ECB2E48093DD0284
:101200009093DE02A093DF02B093E0028093CC02C1
:101210009093CD02A093CE02B093CF0220E030E0B5
:10122000A90161E070E08DED92E00E94C10320E031
:1012300030E04CEB52E462E070E08DED92E00E9411
:10124000C10320E030E040EA50E462E070E08CEC62
:1012500092E00E94C1030E9456049EE088E10FB60E
:10126000F894A895809360000FBE9093600085EE7F
:10127000982E95EC892E26E0222E38EE432E33E070
:10128000532E612C712CA89584EB90E00E945202A1
:10129000609318027093190280931A0290931B02B4
:1012A00086EB90E00E945202609314027093150244
:1012B00080931602909317022FB7F894809108023A
:1012C00090910902A0910A02B0910B022FBF4091A8
:1012D0001002509111026091120270911302841B4E
:1012E000950BA60BB70B813C944DAF4FBF4FA8F0A9
:1012F0000E9456042FB7F894809108029091090239
:10130000A0910A02B0910B022FBF8093100290931C
:101310001102A0931202B09313028FE00E94860183
:101320009A83898380E10E9486019C838B8381E17B
:101330000E9486015C0131E03093A10148E64093B0
:10134000C2011092BD021092BC0260E080EC92E0FB
:101350000E9423029091BC02913208F04AC0809111
:10136000BB028111FCCF52E05093BB02E1E0E0935D
:10137000BA02FFEFF093E6011092E5019093E401C9
:10138000A2EAB1E0E3ECF1E02E2F43EC51E0241BA4
:10139000291718F42D912193F7CF1092E301909122
:1013A000E301906D9093E3019091B902913069F45B
:1013B0001092B9029091E3019093BB009091BC0010
:1013C00093FDF8CF8092BC0002C09092BC00909137
:1013D000BB029230E1F39091E6019F3F79F080915A
:1013E000E601803241F08091E601803331F084E003
:1013F00005C081E003C082E001C083E01092BD021D
:101400001092BC021092A101882319F010920702D9
:1014100002C151E0509307028091BB028111FCCFC1
:1014200081E08093BB028093BA029FEF9093E60124
:101430001092E5012092E4018093E3018091E301A1
:10144000806D8093E3018091B902813069F410923C
:10145000B9028091E3018093BB008091BC0083FDC1
:10146000F8CF8092BC0002C09092BC008091BB0279
:101470008130E1F38091E501873018F48091E50136
:1014800001C087E0A3ECB1E0E7EEF1E09E2F27EE8C
:1014900031E0921B981718F49D919193F7CF109219
:1014A000BF028093BE02873008F4B5C080EC92E0A2
:1014B0000E94DF01D82E8695869586958E70382EEF
:1014C000330C330C830D9D2D9F70382E390E80EC1C
:1014D00092E00E94DF01982F92959F708F70E82E06
:1014E0003AE0939FE00C112480EC92E00E94DF012F
:1014F000182F1695169516951670912F990F990F0E
:10150000190F8F70180F80EC92E00E94DF0180ECC1
:1015100092E00E94DF01982F92959F708F70082FA4
:101520004AE0949F000D112480EC92E00E94DF01BC
:10153000982F92959F708F70F82E5AE0959FF00C1F
:10154000112480EC92E00E94DF01682F6F70625ED0
:1015500082958F709AE0899F600D1124D7FC5BC043
:1015600070E06E54784F072E000C880B990B0E9488
:1015700018078DE20E940D078F2D90E00E94E10276
:101580008DE20E940D07802F90E00E94E1028FE51E
:101590000E940D07812F90E00E94E1028AE30E94E1
:1015A0000D078E2D90E00E94E1028AE30E940D0754
:1015B000832D90E00E94E1028CE20E940D072FB77C
:1015C000F894609108027091090280910A0290914A
:1015D0000B022FBFA30192010E94370C6B017C010B
:1015E000643671058105910580F460E38CE192E039
:1015F0000E941301EAE0CE16D104E104F10428F4BC
:1016000060E38CE192E00E941301C701B6010E94E1
:1016100018070E94170829813A81B901330F880BF6
:10162000990B0E9418070E9417084B815C81BA0130
:10163000550F880B990B0E9418070E941708B501D7
:10164000BB0C880B990B0E9418070E941708609129
:101650000C0270910D0280910E0290910F0242E0F7
:101660000E9442070E9417086091040170910501D1
:10167000809106019091070142E00E9442070E947A
:101680001708609100017091010180910201909111
:10169000030142E00E9442070E941708609118026D
:1016A0007091190280911A0290911B0242E00E94EF
:1016B00042070E94170860911402709115028091F0
:1016C00016029091170242E00E9442070E941708FA
:1016D00042E060E070E0CB010E94420786E391E0C7
:1016E0000E94BA060E947C01CECD4F925F926F920B
:1016F0007F928F929F92AF92BF92CF92DF92EF92A2
:10170000FF92ECE1F2E01382128288EEC82E83E0B1
:10171000D82EE12CF12CC482D582E682F7828AE1B0
:1017200091E09183808385EC90E09587848784ECB9
:1017300090E09787868780EC90E0918B808B81EC9E
:1017400090E0938B828B82EC90E0958B848B86EC7F
:1017500090E0978B868B118E128E138E148E1092C2
:10176000BF021092BE021092BD021092BC021092F3
:10177000BB0281E08093BA021092B90261E082E17B
:101780000E944D0361E083E10E944D03E9EBF0E02C
:1017900080818E7F808380818D7F808388E48093A9
:1017A000B80085E48093BC00E0ECF2E01382128282
:1017B000C482D582E682F7828AE291E091838083B7
:1017C0008AE00E949B0661E08AE00E944D03EDEDF5
:1017D000F2E08AE0808B412C90E4592E9CE1692E46
:1017E00096E4792E4086518662867386812C912CF0
:1017F0002BEEA22E22E4B22E84829582A682B7829C
:10180000C12C3AE6D32E3AE1E32E36E4F32EC48619
:10181000D586E686F786C082D182E282F38289E0AD
:101820000E949B0661E089E00E944D03ECECF2E02F
:1018300089E0808B40865186628673868482958299
:10184000A682B782C486D586E686F786C082D18214
:10185000E282F382FF90EF90DF90CF90BF90AF9045
:101860009F908F907F906F905F904F900895A1E22E
:101870001A2EAA1BBB1BFD010DC0AA1FBB1FEE1F0A
:10188000FF1FA217B307E407F50720F0A21BB30B55
:10189000E40BF50B661F771F881F991F1A9469F7D1
:1018A00060957095809590959B01AC01BD01CF012D
:1018B0000895EE0FFF1F0590F491E02D0994505804
:1018C000BB27AA270E94770C0C94EA0D0E94DC0D1E
:1018D00038F00E94E30D20F039F49F3F19F426F40C
:1018E0000C94D90D0EF4E095E7FB0C94D30DE92F81
:1018F0000E94FB0D58F3BA17620773078407950718
:1019000020F079F4A6F50C941D0E0EF4E0950B2E44
:10191000BA2FA02D0B01B90190010C01CA01A00141
:101920001124FF27591B99F0593F50F4503E68F19C
:101930001A16F040A22F232F342F4427585FF3CFDD
:10194000469537952795A795F0405395C9F77EF4AE
:101950001F16BA0B620B730B840BBAF09150A1F0F7
:10196000FF0FBB1F661F771F881FC2F70EC0BA0F7D
:10197000621F731F841F48F4879577956795B79505
:10198000F7959E3F08F0B0CF9395880F08F0992700
:10199000EE0F9795879508950E94AF0D08F481E0AA
:1019A00008950E94E50C0C94EA0D0E94E30D58F096
:1019B0000E94DC0D40F029F45F3F29F00C94D30D18
:1019C00051110C941E0E0C94D90D0E94FB0D68F35E
:1019D0009923B1F3552391F3951B550BBB27AA27E8
:1019E00062177307840738F09F5F5F4F220F331F22
:1019F000441FAA1FA9F335D00E2E3AF0E0E832D0EA
:101A000091505040E695001CCAF72BD0FE2F29D0EC
:101A1000660F771F881FBB1F261737074807AB07BE
:101A2000B0E809F0BB0B802DBF01FF2793585F4F33
:101A30003AF09E3F510578F00C94D30D0C941E0E95
:101A40005F3FE4F3983ED4F3869577956795B79515
:101A5000F7959F5FC9F7880F911D9695879597F920
:101A60000895E1E0660F771F881FBB1F6217730799
:101A70008407BA0720F0621B730B840BBA0BEE1FAE
:101A800088F7E09508950E94030E88F09F5798F01C
:101A9000B92F9927B751B0F0E1F0660F771F881F73
:101AA000991F1AF0BA95C9F714C0B13091F00E948D
:101AB0001D0EB1E008950C941D0E672F782F882716
:101AC000B85F39F0B93FCCF3869577956795B395B4
:101AD000D9F73EF490958095709561957F4F8F4F23
:101AE0009F4F0895E89409C097FB3EF49095809528
:101AF000709561957F4F8F4F9F4F9923A9F0F92FD4
:101B000096E9BB279395F695879577956795B79551
:101B1000F111F8CFFAF4BB0F11F460FF1BC06F5F37
:101B20007F4F8F4F9F4F16C0882311F096E911C049
:101B3000772321F09EE8872F762F05C0662371F06A
:101B400096E8862F70E060E02AF09A95660F771F7E
:101B5000881FDAF7880F9695879597F90895990F5A
:101B60000008550FAA0BE0E8FEEF16161706E80767
:101B7000F907C0F012161306E407F50798F0621B88
:101B8000730B840B950B39F40A2661F0232B242B5D
:101B9000252B21F408950A2609F4A140A6958FEF7C
:101BA000811D811D089597F99F6780E870E060E0CE
:101BB00008959FEF80EC089500240A9416161706E6
:101BC00018060906089500240A941216130614062E
:101BD00005060895092E0394000C11F4882352F091
:101BE000BB0F40F4BF2B11F460FF04C06F5F7F4F49
:101BF0008F4F9F4F089557FD9058440F551F59F030
:101C00005F3F71F04795880F97FB991F61F09F3FE9
:101C100079F087950895121613061406551FF2CF12
:101C20004695F1DF08C0161617061806991FF1CF62
:101C300086957105610508940895E894BB27662789
:101C40007727CB0197F908950E94AF0D08F48FEF25
:101C500008950E943C0E0C94EA0D0E94DC0D38F0B1
:101C60000E94E30D20F0952311F00C94D30D0C94F9
:101C7000D90D11240C941E0E0E94FB0D70F3959F3C
:101C8000C1F3950F50E0551F629FF001729FBB2773
:101C9000F00DB11D639FAA27F00DB11DAA1F649F0F
:101CA0006627B00DA11D661F829F2227B00DA11DC2
:101CB000621F739FB00DA11D621F839FA00D611D48
:101CC000221F749F3327A00D611D231F849F600D69
:101CD000211D822F762F6A2F11249F5750409AF092
:101CE000F1F088234AF0EE0FFF1FBB1F661F771F1E
:101CF000881F91505040A9F79E3F510580F00C94E9
:101D0000D30D0C941E0E5F3FE4F3983ED4F38695FA
:101D100077956795B795F795E7959F5FC1F7FE2B88
:101D2000880F911D9695879597F908950E94AF0D9C
:101D3000880B990B089581E090E0F8940C94A00E24
:041D4000F894FFCF45
:101D44000000A0400000BC420A0014000000320061
:101D54004600320000000000000013018F00DC0088
:101D6400BA00CE005A01000000002302F3018700EC
:101D7400DF01D001CF010D0A006E616E00696E664D
:0A1D8400006F7666002E002C0000B0
:00000001FF
